S1132000BF2532BD2829CE256CBDF00C0ECE1000A4
S1132010FF2568CE2588BDF00C0EBDFFEFF7256BBC
S1132020B7256ACE0000FF255CCE0000FF255ACEFE
S11320300000FF2558CE03D0FF254EFE254EC69E38
S1132040E700CE000BFF2540FE2540EE00FF2540B3
S1132050CE0001FF2560CE0123FF255EFE255EC66E
S113206007E700FE255EC605E701CE0000FF000F6E
S1132070CE258EBD2700F6255BB6255ABD26F6FE75
S1132080255C08FF255CFE255C8C000427037E206C
S113209097CE0000FF255CFE254EC69EE7007E21FC
S11320A0A4FE254EE6004FC00782002E0526065DDD
S11320B027037E2149C6044FBD269C3736C6324FBE
S11320C030BD25C03131FB255BB9255AF7255BB7F7
S11320D0255AF6255BB6255A3736C6644F3736BDC2
S11320E0260631313131F72559B72558CE0001FF85
S11320F02546CE000AFF25BEFE255EC69DE700FEEE
S1132100255EC69DE701CE2595BDF00C0EFE255E2D
S1132110C620E700FE255EC620E701CE2598BDF067
S11321200C0EFE254608FF2546F62547B62546F043
S113213025BFB225BE2E0826035D26037E20F8FEA9
S1132140254EC620E7207E2035CE0A0AFF000FCE9A
S1132150259BBD2700CE0001FF2546CE000AFF25A2
S1132160BEFE254EC62AE700CE25A5BDF00C0EFE08
S1132170254EC620E700CE25A8BDF00C0EFE254650
S113218008FF2546F62547B62546F025BFB225BEED
S11321902E0826035D26037E2161CE25ABBDF00CFF
S11321A00E7E200DFE254EC620E700FE254EC620DD
S11321B0E720CEEEC0FF2564FE2564E6004FC42070
S11321C08400C1002604810027037E21D4FE254E0D
S11321D009FF254EFE2564E6004FC4408400C1007B
S11321E02604810027037E21F0FE254E08FF254E9C
S11321F0FE2564E6004FC4808400C10026048100EB
S113220027037E220CFE254E08FF254ECEEEC0FF8E
S11322102564FE2564E6004FC41084001B260525B2
S1132220037E223DF6255DB6255CC4018400F728B3
S113223060B7285F5D26034D27037E2262F6254F93
S1132240B6254ECBE089FFF7254FB7254EF6254F2F
S1132250B6254EC02082012D037E2262CE03D0FF1C
S1132260254EFE254EE6004FC12026078100260399
S11322707E2284FE254EE6004FC19E26048100275F
S1132280037E20A1FE254EC69EE700FE2564E600DF
S11322904FC1EF2604810027037E22A3FE254EC6EC
S11322A01AE720FE255C27037E2324FE255EC62034
S11322B0E700FE255EC620E701C6084FBD269CC187
S11322C0012604810027037E22D570256126037A26
S11322D02560732560F6255FB6255EFB2561B9256B
S11322E060F7255FB7255EF6255FB6255EC02482BC
S11322F0012D037E22FCCE0001FF2560F6255FB68A
S1132300255EC03882012D0526065D26037E231630
S1132310CEFFFFFF2560FE255EC607E700FE255EB3
S1132320C605E701BD23BCBD24FDBD23F4BD242C9B
S1132330BD2491CE0140FF2554C6084FBD269CC143
S1132340012604810027037E2379CE0120FF255432
S1132350C6084FBD269CCBFF89FF584958495849A8
S1132360584958495849FB2555B92554F70064B7CD
S11323700063FE0063C67CE700C6084FBD269CC10F
S1132380012604810027037E23B9CE013FFF255493
S1132390C6084FBD269CCBFF89FF58495849584968
S11323A0584958495849FB2555B92554F70064B78D
S11323B00063FE0063C67BE7007E207FCE037FFFC1
S11323C02564FE2564E6004FC186260481002703A8
S11323D07E23E1FE2564C686E720FE2564C620E749
S11323E000FE256409FF2564FE25648C013F270354
S11323F07E23C239CE039FFF2564FE2564E6004F89
S1132400C17C2604810027037E2419FE2564C67C32
S1132410E701FE2564C620E700FE256409FF256464
S1132420FE25648C011F27037E23FA39CE0120FF89
S11324302564FE2564E6014FC17B26048100270341
S11324407E2451FE2564C67BE700FE2564C620E792
S113245001FE256408FF2564FE25648C039E270382
S11324607E243239F62541B625405849F82541B82D
S11324702540CB01890037365F86013736BD2606F5
S113248031313131F62860B6285FF72541B7254050
S113249039CE037FFF2564FE2564E6004FC1202664
S11324A007810026037E24EAFE2564E6004FC186E8
S11324B02607810026037E24EABD2464F62541B65E
S11324C02540F02559B225582E0526065D27037EA2
S11324D024EAFE2564E6204FC186260781002603F0
S11324E07E24EAFE2564C686E720FE256409FF25CE
S11324F064FE25648C013F27037E249739CE038034
S1132500FF2564FE2564E6004FC18626048100276A
S1132510037E251BFE2564C620E700FE256408FF14
S11325202564FE25648C03A027037E250339BE257C
S105253032393A
S113256C513254345033DA23CCD75030525037D7FD
S113257C503152D752D75033525225005431503027
S113258C250053434F52453A00BC2500BF25004754
S113259C414D45204F56455200BF2500BC250054E3
S11325AC345031C452C452D052BF5032CC50395230
S10525BC2500F4
S11325C0FF0063EE00FF005DF70070B7006F271D8A
S11325D0CE00104F5F8C584979007079006F240643
S11325E0FB005EB9005D0926EDFE006339CE0008EC
S11325F04F5F58497900702406FB005EB9005D09FD
S113260026F0FE006339300808A602E6037F28722C
S11326106D0026076D0126107E26C32A0B7C2872C6
S1132620600126026A0063004D2A057A28728D141F
S1132630BD2649B7285FF72860B6006FF600707DA5
S1132640287227044050820039EE00FF005DCE005E
S1132650007D005D260E36B6005EB7005D7F005E2D
S113266032CE00080878005E79005D24F776005DBC
S113267076005E7F006F7F0070F0005EB2005D2424
S113268008FB005EB9005D0C9C0D79007079006F49
S113269009270874005D76005E20DE39B72865F7E7
S11326A02866CE2861863DC609BD25C08D10B72891
S11326B061F72862CE2865164FBD25C0164FCB01A1
S11326C0890039CE2846BD27003F37168D023317BF
S11326D08D0516C40F200454545454C10A2B02CB44
S11326E007CB303617BD002B323986205D2706BD57
S11326F0002B5A26FA3981002604C10A250D8D2C97
S1132700A600084D27EFBD002B20F5CB30177E0027
S11327102BF7287430A602E6038D11FF2863F628F0
S113272074FB2864C0732B028DC020D44D2B02206F
S113273012BD26448D0DC62D09E700393736C6056E
S11327408DCF39CE286EFF2867CE27907F006FFF8C
S113275028697C006FE001A20024F7EB01A9003690
S1132760B6006F8B2FFF2869FE2867A70008FF2893
S11327706732FE286908088C279826D0CB3053F797
S11327802872CE286D08E600C13027F97328723903
S1132790271003E80064000A860D7E002BCE050195
S11327A009865FBD0028810D26056F007E002B8100
S11327B07F270681082611867FBD002B8C05002605
S11327C0DF8607BD002B20D9812D26078C05002626
S11327D0D0200D813025EA813A24E68C050727E1D3
S11327E0BD002BA7000820B98DB3CE04FFE601C1BC
S11327F02D2608088D0540508200395F4F08F728C0
S11328005EB7285DE600C030251BC10A2417E70027
S1132810F6285E58495849FB285EB9285D5849EBAB
S113282000890020D8F6285E397F00C47F00C57F68
S113283000C77F00CA7F00CB7A00CB39BDF00F25DB
S11328400216815F4F390D44495649444520425987
S10E28502030204552524F520D07006B
S10428730060
S9032000DC
