S00D000044454E4441492E6D6F74CF
S1131000BD10A17E10AE8D63810226FA2026968C37
S113101026F4968D2719860A5FCE0082BD1396BDED
S11310201304BD16EEBD106B810D26247E10AE8612
S113103023BD1342CE0400988097808D2E810D2607
S11310400F6F00DF8A968C2603BD1741CE0400394A
S1131050817F26088C040027DE0920DB8C0480278E
S113106005A7000820D1C6647E175A7E183536BD00
S1131070FFE9BDFFE60F3239DE9086FFA70008A71F
S113108000DF92CE10AEDF04393F07978DBD15A661
S1131090800A82009783D78239BD122EBD15832022
S11310A017CE1847BD1754CE2000DF908DCA8E0688
S11310B047BDFFE60FBD1138BD1741CE182BBD1734
S11310C0540797888E0647BD100EBD140224428D26
S11310D0C38D0220EFDF849F868D38DF7E25128D3D
S11310E07B0835DE7E5833E700082AF924F709DF48
S11310F092DE84A600273E968B90858B03DE929B1E
S113110093979324037C0092BD1193240FDF9220C4
S1131110672040968C2754DE92090D399E92080967
S1131120A600369C7E26F89E82AF00089E84340872
S113113032A70026FA9E8639CE0000DF8CCE054207
S1131140FF0500CE0680DF94CE0480FF0480BDFF3F
S1131150E60F39DF84CE177F0909206008086D0087
S113116026FB39DE882B048D04241ADE909683D660
S1131170822B08260E4D260BC66E7DC6787E175A26
S11311808DDA088D7422F939BD15A65D26244D2704
S1131190CD201F9609D6089093D292397E10B88D2F
S11311A097DE90DF88A6004825F29688918A27EC7E
S11311B00808BD106EDF84CE179909098E0647BD55
S11311C0147D09A60008813A27E84D26F620D45F4D
S11311D0D77E8D1624BD494848484879007E594831
S11311E026F9088D0525EF967E39BD142A25098038
S11311F007813A0C2D02814039E1002602A1013910
S1131200DF84CE18089F869E843408083281202704
S1131210FB16A00048260924F208319F849E8639D3
S1131220A600082AFBC12E27F14326DB20ED8D24DE
S113123027258D42270ADF84CE18140909BD147DA1
S11312408D122713813B2706812C26498D0F088D8B
S11312500326DF397E13597E1741BD16EE968E851F
S11312600726F7398D297E13428D24D10F2402D706
S11312700FD18E22F9398DDC812227048127260E95
S1131280160820028DE0A600270B081126F639BDAA
S113129014BE7E15A8C6827DC68C7E117DA600AACA
S11312A00127F58D408D2C4940168D2C4988014924
S11312B08D1CBD11F926084F166C0326026C02081A
S11312C008398D218D0D4959A001E2008D0A7A005B
S11312D08F26F1690369023937E800330D2A05AB1B
S11312E001E9000C398610978F4F16398DF748594C
S11312F0690169002404AB03E9027A008F26EF0830
S1131300087E139AEE00DF7CCE007C8D3E2404869A
S11313102D8D2F0909C60AE7016F0057378DA333B6
S1131320365A26F8CE0400C604968F322604978FC8
S113133027028D045A26F2328B307D008D2703A7B5
S113134000087C008EBD106E7E18426D002A086075
S11313500126026A0063003908A600812027F94D9E
S11313602703813A0D398DF1812D26048D1F200725
S1131370812B2701098D5CDE848DDE812B26068D71
S1131380528D0E20F2812D26158D0220F48D4420DD
S1131390BEBD15A80808AB01E900A701E70039BDE7
S11313A014BE8D318DA5DE84398DAE813D26153177
S11313B0315C200D5F8DF28D12260A8DEC813E2664
S11313C0035C084F398DF626FB8DDE813C26F5CB78
S11313D00420EF8D60DF84FE0480398D898DD55D16
S11313E027E2378D81BD15A8FE0480A001E20033F9
S11313F02D072E034D27015757C401E7016F00DE67
S11314007E398D2624235FD77FD77E840F978F96CE
S11314107F485948599B7FD97E48599B8F977FC9EC
S113142000088D0625E3967F0D39BD14B081300C7C
S11314302D02813A398D348D77812A260C8D15BD84
S113144012ECFF0480DE8420EE812F26E78D05BD9B
S1131450129D20EE8D157E13D508BD11CF20328D3F
S11314600ABD15A88D63A6005F2024088D9425214C
S1131470812327EB812427E1DF84CE17ECBD1205FD
S1131480A60136A60036DE84398D3EA601E600DECE
S113149084DF7EFE048009099C8A2F09BD139AFF0C
S11314A00480DE7E39C6967DC6A07DC6AA7E175A04
S11314B07E13598D6A24D2A600812826EB08BD1319
S11314C0DB8DED812926E10839DF84977FD77EDE25
S11314D07E39BD13DBA600812C26D0088DE0DF7E8B
S11314E0FE0480BD129D20B49681D680DB8189954F
S11314F0C9AB54D78197808D9820E18D0220908DBF
S11315001836378D0D36378D09363707368DB2DFED
S1131510843BA600812C2604087E15A64F5F398DD6
S11315208F8140270D81412527815A222348D68A5D
S11315300839BD146BBD15A8C5C026110D49599BAA
S113154093D992D1082602910924020C397E11788C
S11315500D39BD13A9C6B47DC6BE7E175ABD151F6D
S113156025F3977DD77C8DEA8D3CDF84DE7C395F63
S113157037BD140225517E11B2BD146B8D2A8DE244
S11315801620619F8635DE948C064A27CB0909AF65
S113159000DF94309E8639DE948C068027BA9F86BD
S11315A0AE00080820EB8D18DF7EFE04808C0480DA
S11315B027A3A601E6000808FF0480DE7E39DE8446
S11315C07E13DB4F368DDFBD1094324D27028DB371
S11315D0BD116325557E11A3BD13598123279ABDDF
S11315E0155DA701E700DE84398DF4967DD67CBDB8
S11315F01491BD12008C180C26338DC2BD12008CC0
S11316001812270886015FBD148F20028DB0DF8475
S11316109685D684BD1491967DD67CFE05008D1FDB
S11316202410FE05008C0502260AC6C87DC6D27E9B
S1131630175AEC088D102053BD11F92708EC088CBB
S1131640054226F40D398D008D00BD15A809097ECB
S1131650139AC6DC7E175ABD151FDF84FE050024CD
S113166004A601E6008DD825E9FF0500A605E604D9
S1131670EE00BD1396FE0500E1020D2D070C2E04AD
S1131680A103270D46A8042B08EC08FF0500DE84FF
S113169039EE0639DF7C967C2741DE8ADF7ADE7CF0
S11316A0BD127626028D37BD151F252F3637DF7CF8
S11316B0DE7A8D372609863F8D368D32BD1034BDD6
S11316C015A68D1ADF7A30EE003131BD139ADE7C17
S11316D08D19270F812C26030820CC7E10668D04DB
S11316E026010839368D04812C32397E135986201F
S11316F07E13425F8601BD1094C67F86FF368DEB54
S113170032270EBD15A6BD10948DD9260408BD152B
S1131710A69787D786DE862605CE7FFFDF86BD1196
S11317206B20028D109687D686BD11F924F58602AA
S11317308DBE7E10AE86028DB78D0E0886208D116B
S1131740397F008E860D7E1842DF7EBD1304DE7E57
S1131750398D9D08A60026F908398E06478DE2CEFC
S113176018238DF0175F8D0DDE882BC68DD38DC5A4
S113177020C0BD15A63637DF7E308DCF3332394CCD
S11317804953D416F35255CE119F45D8F000415514
S113179054CF108A4E45D710AC4C45D415D849C601
S11317A01188474F54CF15C3474F5355C215C452E0
S11317B045D415974E4558D41657464FD215E9547B
S11317C04845CE156F5245CD115E5052494ED41244
S11317D02E494E5055D4169450D2122E49CE1694FA
S11317E053544FD01099454EC410AEFF15D8524EE5
S11317F044A814E8414253A8139F4D4F44A814D25F
S113180055534552A814FBFF14B354CF1234535408
S113181045D0ABCD434852A81264544142A8126942
S1131820FF17724552524F522007004F4B0D00FFD5
S1131830FFFFFFFF00865FBDF012810D2703BD1877
S11318404239BDF0150F390C4849544143484920E9
S11318504D422D363838312044454E4441492054B8
S1131860494E592042415349432056455220312E76
S1131870300D504F5254494E472042592054455739
S1101880534F46542E20313938310D0D00E0
S9031000EC
