S00D000042415349432E73726563B5
S1131000BD10A17E10AE8D63810226FA2026968C37
S113101026F4968D2719860A5FCE0082BD1398BDEB
S11310201306BD16F2BD106B810D26247E10AE860C
S113103023BD1344CE0400988097808D2E810D2605
S11310400F6F00DF8A968C2603BD1745CE04003946
S1131050817F26088C040027DE0920DB8C0480278E
S113106005A7000820D1C6647E175E7E183936BDF8
S1131070FFE9BDFFE60F3239DE9086FFA70008A71F
S113108000DF92CE10AEDF04393F07978DBD15AA5D
S1131090800A82009783D78239BD1230BD1587201C
S11310A017CE184BBD1758CE2000DF908DCA8E0680
S11310B047BDFFE60FBD1138BD1745CE182FBD172C
S11310C0580797888E0647BD100EBD140424428D20
S11310D0C38D0220EFDF849F868D38DF7E25128D3D
S11310E07B0835DE7E5833E700082AF924F709DF48
S11310F092DE84A600273E968B90858B03DE929B1E
S113110093979324037C0092BD1193240FDF9220C4
S1131110672040968C2754DE92090D399E92080967
S1131120A600369C7E26F89E82AF00089E84340872
S113113032A70026FA9E8639CE0000DF8CCE054207
S1131140FF0500CE0680DF94CE0480FF0480BDFF3F
S1131150E60F39DF84CE17830909206008086D0083
S113116026FB39DE882B048D04241ADE909683D660
S1131170822B08260E4D260BC66E7DC6787E175E22
S11311808DDA088D7422F939BD15AA5D26244D2700
S1131190CD201F9609D6089093D292397E10B88D2F
S11311A097DE90DF88A6004825F29688918A27EC7E
S11311B00808BD106EDF84CE179D09098E0647BD51
S11311C0148109A60008813A27E84D26F620D45F49
S11311D0D77E8D1624BD494848484879007E594831
S11311E026F9088D0525EF967E39BD142C25098036
S11311F007813A0C2D02814039E1002602A1013910
S1131200DF84CE180E09099F869E84340808328133
S11312102027FB16A00048260924F208319F849E4B
S11312208639A600082AFBC12E27F14326DB20EDD0
S11312308D2427258D42270ADF84CE18180909BD7D
S113124014818D122713813B2706812C26498D0F8B
S1131250088D0326DF397E135B7E1745BD16F29693
S11312608E850726F7398D297E13448D24D10F24CA
S113127002D70FD18E22F9398DDC812227048127F0
S1131280260E160820028DE0A600270B081126F66C
S113129039BD14C27E15ACC6827DC68C7E117DA676
S11312A000AA0127F58D408D2C4940168D2C4988C4
S11312B001498D1CBD11F926084F166C0326026CDA
S11312C0020808398D218D0D4959A001E2008D0ACB
S11312D07A008F26F1690369023937E800330D2A51
S11312E005AB01E9000C398610978F4F16398DF73D
S11312F04859690169002404AB03E9027A008F2686
S1131300EF08087E139CEE00DF7CCE007C8D3E242B
S113131004862D8D2F0909C60AE7016F0057378D02
S1131320A333365A26F8CE0400C604968F32260418
S1131330978F27028D045A26F2328B307D008D2739
S113134003A700087C008EBD106E7E18466D002A2F
S113135008600126026A0063003908A6008120277C
S1131360F94D2703813A0D398DF1812D26048D1F06
S11313702007812B2701098D5CDE848DDE812B26DD
S1131380068D528D0E20F2812D26158D0220F48DAE
S11313904420BEBD15AC0808AB01E900A701E70075
S11313A039BD14C28D318DA5DE84398DAE813D26C3
S11313B01531315C200D5F8DF28D12260A8DEC8182
S11313C03E26035C084F398DF626FB8DDE813C26D4
S11313D0F5CB0420EF8D60DF84FE0480398D898D88
S11313E0D55D27E2378D81BD15ACFE0480A001E2F6
S11313F000332D072E034D27015757C401E7016F12
S113140000DE7E398D2624235FD77FD77E840F9715
S11314108F967F485948599B7FD97E48599B8F970F
S11314207FC900088D0625E3967F0D39BD14B4816C
S1131430300C2D02813A398D348D79812A260C8D18
S113144015BD12EEFF0480DE8420EE812F26E78D89
S113145005BD129F20EE8D157E13D708BD11CF2038
S1131460348D0ABD15AC8D65A6005F2026088D94C9
S11314702523812327EB812427E1DF84CE17F2097A
S113148009BD1207A60136A60036DE84398D3EA6B4
S113149001E600DE84DF7EFE048009099C8A2F09B0
S11314A0BD139CFF0480DE7E39C6967DC6A07DC632
S11314B0AA7E175E7E135B8D6A24D2A6008128263D
S11314C0EB08BD13DD8DED812926E10839DF849712
S11314D07FD77EDE7E39BD13DDA600812C26D008A1
S11314E08DE0DF7EFE0480BD129F20B49681D680FD
S11314F0DB818995C9AB54D78197808D9820E18D84
S11315000220908D1836378D0D36378D0936370702
S1131510368DB2DF843BA600812C2604087E15AAF2
S11315204F5F398D8F8140270D81412527815A22B4
S11315302348D68A0839BD146DBD15ACC5C0261123
S11315400D49599B93D992D1082602910924020C82
S1131550397E11780D39BD13ABC6B47DC6BE7E1776
S11315605EBD152325F3977DD77C8DEA8D3CDF8402
S1131570DE7C395F37BD140425517E11B2BD146D74
S11315808D2A8DE21620619F8635DE948C064A27CB
S1131590CB0909AF00DF94309E8639DE948C068037
S11315A027BA9F86AE00080820EB8D18DF7EFE0464
S11315B0808C048027A3A601E6000808FF0480DECF
S11315C07E39DE847E13DD4F368DDFBD1094324DBF
S11315D027028DB3BD116325557E11A3BD135B8115
S11315E023279ABD1561A701E700DE84398DF4969F
S11315F07DD67CBD1495BD12008C181026338DC287
S1131600BD12008C1816270886015FBD14932002B2
S11316108DB0DF849685D684BD1495967DD67CFEE8
S113162005008D1F2410FE05008C0502260AC6C87D
S11316307DC6D27E175EEC088D102053BD11F927AC
S113164008EC088C054226F40D398D008D00BD157B
S1131650AC09097E139CC6DC7E175EBD1523DF84AE
S1131660FE05002404A601E6008DD825E9FF050047
S1131670A605E604EE00BD1398FE0500E1020D2D5B
S1131680070C2E04A103270D46A8042B08EC08FF21
S11316900500DE8439EE0639DF7C967C2741DE8A3C
S11316A0DF7ADE7CBD127826028D37BD1523252F07
S11316B03637DF7CDE7A8D372609863F8D368D32CC
S11316C0BD1034BD15AA8D1ADF7A30EE003131BD5C
S11316D0139CDE7C8D19270F812C26030820CC7ED9
S11316E010668D0426010839368D04812C32397E2A
S11316F0135B86207E13445F8601BD1094C67F86EB
S1131700FF368DEB32270EBD15AABD10948DD92658
S11317100408BD15AA9787D786DE862605CE7FFFE7
S1131720DF86BD116B20028D109687D686BD11F918
S113173024F586028DBE7E10AE86028DB78D0E080E
S113174086208D11397F008E860D7E1846DF7EBD82
S11317501306DE7E398D9D08A60026F908398E060B
S1131760478DE2CE18278DF0175F8D0DDE882BC6CE
S11317708DD38DC520C0BD15AA3637DF7E308DCF01
S11317803332394C4953D416F75255CE119F45D8AC
S1131790F000415554CF108A4E45D710AC4C45D477
S11317A015DC49C61188474F54CF15C7474F5355C9
S11317B0C215C85245D4159B4E4558D4165B464FA6
S11317C0D215ED544845CE15735245CD115E505295
S11317D0494ED41230494E5055D4169850D2123036
S11317E049CE169853544FD01099454EC410AEFFAD
S11317F015DC524E44A814EC414253A813A14D4F9A
S113180044A814D655534552A814FFFF14B754CF17
S11318101234535445D0ABCD434852A812665441B8
S113182042A8126BFF17764552524F522007004FC1
S11318304B0D00FFFFFFFFFF00865FBDF012810D1F
S11318402703BD184639BDF0150F390C48495441DA
S1131850434849204D422D363838312044454E44C2
S113186041492054494E5920424153494320564549
S11318705220312E300D504F5254494E4720425978
S113188020544557534F46542E20313938310D0DCD
S10418900053
S9031000EC
