S00D000047414D4536382E6D6F74EC
S11310007E1028203E36BDFFE90E3239360FBDFF73
S1131010E6323907B704853B3617BD002B7D0487BC
S11310202703BD19F11632399E08CE3A00FF047A1F
S1131030FF044C86FFA7007F04867F0487CE181325
S1131040BD1221D609F70455D6085AF704547F0473
S113105085CE1013DF04CE0400DFF07F04867F0406
S113106087DE0B260108FF044EBD1A469E087F0446
S113107085CE04FFDFE0CE1809BD12218D879E08BE
S1131080BD14922551FF043EBD129227DFBD1138D5
S11310902BDAFF043E7D0485270E7F04867F0487B8
S11310A0CE1831BD122120C40808A6008120260ACA
S11310B0BD12912612086D0020D608A60026FB0852
S11310C0FF043EA60020C9FE043EDFEC8D702B9C7D
S11310D09CEC27B920BFFF0470B70446F70447E629
S11310E000C12F266D8D51BD15006D002B098D1F7C
S11310F07D0485260220F07D048727104FBD19F159
S1131100DE3B9C3D2703BD1A067F04877E106CFFDF
S1131110043EA600E6017D04872605BD16092005C8
S1131120BD11D58D05FE043E08087E1221FE043E45
S11311300808A60026FB0839FE047AFF043EA6012F
S1131140B00447A6002B0AB2044624048DDF20EB2A
S11311504F39FE0446278E2B4FFE044CA6004C2626
S113116047BD100C8DD22B1CEE00BC044626158DF9
S1131170BCBE043EA6003631BC044C270408312012
S1131180F3BF044CFE0470C6036D0027405C086D79
S11311900026FA4FFB044DB9044CB70438F7043960
S11311A0F00455B2045425037E106CFE044CBE04B6
S11311B038BF044C0809E60037BC043E26F7BE04D9
S11311C046AF00BE0470340833E70126FA9E08BD1A
S11311D010057E107ECE047FFF0468CE1A59FF04EA
S11311E06A7F00E67C00E6E001A20024F7EB01A997
S11311F00037D6E6CB2FFF046AFE0468E70008FF39
S1131200046833FE046A08088C1A6126D1CB305373
S1131210F70483CE047E08E600C13027F973048303
S1131220394FB70484E60008F1048427F3BD15C9D7
S113123020F3367D04862705BD193D2005865FBD54
S11312400028163239812027485FF70446F70447FF
S1131250E601C5DF2618815D2605BD152C202E81EB
S113126040260B08FF04424F5FBD12EB201F812272
S11312702605088DAD201B812F261CBD15002011CD
S1131280DFECBD1306BD1505FE04462609FE044227
S11312909C08A60026AF39815B26E508A600815389
S11312A02606BD198B7E106C814C2605BD18CB20FB
S11312B0F481412605BD18DB20EB813D262908A6D3
S11312C00081302606BDF0007E106C81312618089E
S11312D0A60027C2812027F7BDF00CBDFFE90EA6AA
S11312E000812526AD20AA865B201897E8D7E9BDA2
S11312F015A7CE00E87E15AF37088D158DED333276
S113130039863D7E16CBA6000885DF27F4813D266D
S1131310F58D1E36A60085DF271081292710812C24
S113132027D632BD1396DEE220E9FF04429C083240
S1131330397E16EFC13F260BDFEEBD14C98DD2DE18
S1131340EE0839C12826030820C78D31813A2708C1
S11313508D16A600E60120058D064FE600DEEA396B
S11313608D10DBEF99EE20298128261B8D04584926
S113137020F08D13EE00DFEEDEEA0820CBE6000855
S1131380A60081412AF939C43F58D7F1DFEADEF0DB
S113139039DFEA7E158D3637A60036E60137C03DC3
S11313A027035A260108088D8897E8D7E9DFE2CE9B
S11313B000E83332813D260D33328D5126245D26DB
S11313C0214FC60139813C261CC13D270AC13E3349
S11313D0260B328DE5202333328D19201D328D2DBD
S11313E02DDF4F5F39813E2614C13D332605328DF2
S11313F0ED2007328D172DEA8DC2C8013933812BB8
S1131400260632EB01A90039812D260632E001A21D
S11314100039812A27037E166932FF0468EE00DF53
S1131420E4D7E797E6271ACE00104F5F58497900B2
S1131430E77900E62404DBE599E40926EFFE046875
S113144039CE00084F5F58497900E72404DBE59959
S1131450E40926F2FE046839EE00DFE497E6260983
S1131460D7E697E7CE00082006D7E7CE00104F5FF7
S11314707800E77900E65949D0E592E425077C0035
S1131480E70926EC39DBE599E40926E4390C39331C
S11314900D398D31E600C13025F3C13A24F34F5F95
S11314A0EB008900C030820097E4D7E50837E600F6
S11314B0C13025DBC13A24D73358495849DBE59973
S11314C0E4584920DBC63A8D39CE050109BD1232F4
S11314D0C10D2727C17F2706C108260FC67F8D228D
S11314E08C050026E7C6078D1920E2C11025DE8C85
S11314F005FE27F18D0CE7000820D26F00CE050011
S1131500C60D7E15C937DEECE600C12E260C331756
S11315104D2710C6208DEB4A20F6C13B261D338D86
S11315206C2701399E08FE043E7E10BACE04428D1B
S113153003CE043E8D2FA700E70139C1402635367E
S1131540E602BD138732338DED8D1ABD13DE260DF1
S11315508DDADEE0090909090909DFE039DFE6DE91
S1131560E008082004DFE6DEE0A600E6010808DF64
S1131570E0DEE639C126261FE601C13D2619338D7A
S11315800C2609FE047AFF044C4AA70039B7046804
S1131590F70469FE046839C121262933B70446F7E4
S11315A00447FE044627EFCE043E8D03CE0442A634
S11315B000E601FF0468DEE00909A700E701DFE0B7
S11315C0FE046839C1242604337E1018C13F263F27
S11315D0E601C12827037E176C3608BD16EFF70411
S11315E08432338D13FF0460B60484BB04618084A9
S11315F02B03BD15107E12214D2B037E11D5BD1674
S1131600A88DF8C62D09E700393736C60520CFC1A5
S11316103D261633B7047AF7047BCEFFFFFF04465A
S1131620BD1138FF044C7E106CC13E262333BD151A
S11316308D27D5AD003736DEECBD137D813A260803
S1131640BD13603233E70039BD136832337E15367B
S1131650C15C260B330F970AD70B7F000C0E39C1E0
S11316605E26D333970FD71039812F26407F04830A
S11316706D0026066D01260F20512A0B7C04836021
S11316800126026A006300324D2A057A04838D180C
S1131690FF0468BD1458FE0468B7044AF7044B9667
S11316A0E6D6E77D0483270440508200398126264C
S11316B00632E401A40039812E260632EA01AA008A
S11316C0398121260632E801A80039BD1500C63F3C
S11316D0BD15C916BD15C9C620BD15C9FE043EBC3D
S11316E014FE2605BD12212003BD110F7E106CBD12
S11316F014942513C12D2605088DF420ABC12B2687
S113170007088DEB4D2BF439C1232607088DE04DD6
S11317107E13BCC125260A088DD5B6044AF6044BAF
S113172039C1272636088DC7D7E997E8DFEAF604DA
S11317304E54F6044F56F8044EF7044E56F8044F30
S1131740F7044F17B8044EB7044ECE00E8164FBD49
S1131750141A164FDEEACB01890039C12226074F3D
S1131760E60108080839C124272C205CC13F270B57
S1131770C124270A33BD15F87E1221168D023317B2
S11317808D0516C40F200454545454C10A2B02CBA3
S113179007CB307E15C94F8D1925037E1232378D44
S11317A011D7E433241F5849584958495849DBE4B0
S11317B020EC08E600C030250DC10A2508C007C189
S11317C00A2503C110390C39C15C2608080FD60B51
S11317D0960A0E39C15E262008E600C124261408A4
S11317E0FF0488BDFFF5FF048AB6048AF6048BFE65
S11317F0048839960FD61039C15B260A08BDF00F4C
S113180024014F164F397E13340D0D2A524541449D
S1131810590D000C47414D4536382F424D20627911
S1131820207A752032303234303932333134303624
S113183000070D2A425245414B0D00C12F2707C115
S11318405E27177E11527E10E57E106CCE0600BD19
S11318501500BD110FBD150020E908FF0460BD117E
S113186038EE00FF06009C4A26DFFE043E0808FF0F
S1131870043ECE0602FF0470FF0464FE0460FF040D
S1131880628D3C8D251126FB09FF04668D31C15EF6
S113189027078D161127F520E2FE0466FF04648DE8
S11318A01EC15E27D6178D0B20F5FE043EA6000848
S11318B0FF043EFE0464A700279208FF046439FE77
S11318C00462E600278308FF046239FF0488FE04EB
S11318D07AFF044C6F006A00FE048807B704860888
S11318E0A600812027F94D2605865B7E16CBC60609
S11318F0F704867F048A8643B7048BA600271D81DC
S1131900202719810D271508FF0488FE048AA700E3
S113191008FF048AFE04885A26E1200EFF0488FE8C
S1131920048A8620A700085A26F8862E97498653EB
S1131930974A7F004C8D2AFE04887E107EFF04881F
S113194037DE3B8C09002B077C004C8D1420F2A65B
S11319500008DF3B4D2605860D7F048633FE048890
S113196039FF048C36CE0800DF3BCE0900DF3DBDD5
S1131970002E862DBD002B8620BD002B964CBD1A53
S113198031860DBD002B32FE048C3908A60081205F
S113199027F94D2605865B7E16CBC6067F048A860C
S11319A043B7048BA600271D81202719810D271515
S11319B008FF0488FE048AA70008FF048AFE04883E
S11319C05A26E1200EFF0488FE048A8620A7000818
S11319D05A26F8862E97498653974AB704877F007C
S11319E04CCE0800DF3BDF3DFE0488FE047A7E1007
S11319F0EAFF048ADE3DA70008DF3D8C09002602C9
S1131A008D04FE048A39FF048C37367C004CBD00FB
S1131A1031862D8D1986208D15964C8D14860D8D4D
S1131A200DCE0800DF3BDF3D3233FE048C397E00EF
S1131A302B36444444448D013236810A25028B07F7
S1131A408B308DEA32397F00C47F00C57F00C77FA9
S1131A5000CA7F00CB7A00CB39271003E80064006A
S1061A600A000174
S9031000EC
