S00D000047414D4536382E6D6F74EC
S11310007E1028203E36BDFFE90E3239360FBDFF73
S1131010E6323907B704853B3617BD002B7D0487BC
S11310202703BD19AE1632399E08CE3A00FF047A62
S1131030FF044C86FFA7007F04867F0487CE17D267
S1131040BD120BD609F70455D6085AF704547F0489
S113105085CE1013DF04CE0400DFF07F04867F0406
S113106087BD1A039E087F0485CE04FFDFE0CE17F8
S1131070C8BD120B8D8F9E08BD14612551FF043E1F
S1131080BD127C27DFBD11302BDAFF043E7D0485C1
S1131090270E7F04867F0487CE17EEBD120B20C473
S11310A00808A6008120260ABD127B2612086D00BE
S11310B020D608A60026FB08FF043EA60020C9FE91
S11310C0043EDFEC8D702B9C9CEC27B920BFFF0401
S11310D070B70446F70447E600C12F266D8D51BD55
S11310E014CF6D002B098D1F7D0485260220F07D11
S11310F0048727104FBD19AEDE3B9C3D2703BD1965
S1131100C37F04877E1064FF043EA600E6017D04CD
S1131110872605BD15D82005BD11CD8D05FE043EDD
S113112008087E120BFE043E0808A60026FB0839B8
S1131130FE047AFF043EA601B00447A6002B0AB2BF
S1131140044624048DDF20EB4F39FE0446278E2B02
S11311504FFE044CA6004C2647BD100C8DD22B1C10
S1131160EE00BC044626158DBCBE043EA6003631F6
S1131170BC044C2704083120F3BF044CFE0470C6A1
S1131180036D0027405C086D0026FA4FFB044DB93F
S1131190044CB70438F70439F00455B20454250359
S11311A07E1064FE044CBE0438BF044C0809E600FB
S11311B037BC043E26F7BE0446AF00BE04703408B4
S11311C033E70126FA9E08BD10057E1076CE047F13
S11311D0FF0468CE1422FF046AEE00DFEACE00EAC0
S11311E0BD142C36FE046896E78B30A70008FF0474
S11311F068FE046A3208086D0126DBCE047E6305AE
S113120008E600C13027F9730483394FB70484E634
S11312100008F1048427F3BD159820F3367D048675
S11312202705BD18FA2005865FBD002816323981CE
S11312302027485FF70446F70447E601C5DF261870
S1131240815D2605BD14FB202E8140260B08FF047A
S1131250424F5FBD12D5201F81222605088DAD2087
S11312601B812F261CBD14CF2011DFECBD12F0BD55
S113127014D4FE04462609FE04429C08A60026AFA8
S113128039815B26E508A60081532606BD19487EF0
S11312901064814C2605BD188820F481412605BDC3
S11312A0189820EB813D262908A60081302606BD2A
S11312B0F0007E10648131261808A60027C2812020
S11312C027F7BDF00CBDFFE90EA600812526AD2051
S11312D0AA865B201897E8D7E9BD1576CE00E87E8C
S11312E0157E37088D158DED333239863D7E169483
S11312F0A6000885DF27F4813D26F58D1E36A6005D
S113130085DF271081292710812C27D632BD138031
S1131310DEE220E9FF04429C0832397E16B8C13F60
S1131320260BDFEEBD14988DD2DEEE0839C12826D7
S1131330030820C78D31813A27088D16A600E601DF
S113134020058D064FE600DEEA398D10DBEF99EEBD
S113135020298128261B8D04584920F08D13EE0086
S1131360DFEEDEEA0820CBE60008A60081412AF978
S113137039C43F58D7F1DFEADEF039DFEA7E155C85
S11313803637A60036E60137C03D27035A26010842
S1131390088D8897E8D7E9DFE2CE00E83332813D53
S11313A0260D33328D5126245D26214FC601398105
S11313B03C261CC13D270AC13E33260B328DE52055
S11313C02333328D19201D328D2D2DDF4F5F39814E
S11313D03E2614C13D332605328DED2007328D178C
S11313E02DEA8DC2C8013933812B260632EB01A9BF
S11313F00039812D260632E001A20039812A261FF8
S11314003297E6D7E7C610D7E44F5F7400E676005C
S1131410E724028DD8680169007A00E426ED397E5C
S11314201638271003E80064000A00017F00E47CFA
S113143000E46801690024F7660066017F00E67F26
S113144000E78DB324048DA50C9C0D7900E7790089
S1131450E67A00E4270A6400660120E60C39330DBD
S1131460398D31E600C13025F3C13A24F34F5FEBE7
S1131470008900C030820097E4D7E50837E600C150
S11314803025DBC13A24D73358495849DBE599E480
S1131490584920DBC63A8D39CE050109BD121CC15D
S11314A00D2727C17F2706C108260FC67F8D228CF2
S11314B0050026E7C6078D1920E2C11025DE8C053C
S11314C0FE27F18D0CE7000820D26F00CE0500C680
S11314D00D7E159837DEECE600C12E260C33174D31
S11314E02710C6208DEB4A20F6C13B261D338D6C98
S11314F02701399E08FE043E7E10B2CE04428D03BD
S1131500CE043E8D2FA700E70139C140263536E6CB
S113151002BD137132338DED8D1ABD13C8260D8DA6
S1131520DADEE0090909090909DFE039DFE6DEE06E
S113153008082004DFE6DEE0A600E6010808DFE094
S1131540DEE639C126261FE601C13D2619338D0C7E
S11315502609FE047AFF044C4AA70039B70468F749
S11315600469FE046839C121262933B70446F70407
S113157047FE044627EFCE043E8D03CE0442A60068
S1131580E601FF0468DEE00909A700E701DFE0FEE9
S1131590046839C1242604337E1018C13F263FE66F
S11315A001C12827037E172B3608BD16B8F704841B
S11315B032338D13FF0460B60484BB046180842B32
S11315C003BD14DF7E120B4D2B037E11CDBD1671AE
S11315D08DF8C62D09E700393736C60520CFC13D41
S11315E0261633B7047AF7047BCEFFFFFF0446BD0B
S11315F01130FF044C7E1064C13E262333BD155CBC
S113160027D5AD003736DEECBD1367813A2608BD19
S1131610134A3233E70039BD135232337E1505C104
S11316205C260B330F970AD70B7F000C0E39C15E73
S113163026D333970FD71039812F263A7F04836D31
S11316400026066D01260F204B2A0B7C04836001C3
S113165026026A006300324D2A057A04838D12BD86
S1131660142CB7044AF7044B96E6D6E77D04832787
S11316700440508200398126260632E401A4003950
S1131680812E260632EA01AA00398121260632E893
S113169001A80039BD14CFC63FBD159816BD1598D5
S11316A0C620BD1598FE043EBC14CD2605BD120B04
S11316B02003BD11077E1064BD14632513C12D26BC
S11316C005088DF420ABC12B2607088DEB4D2BF4B8
S11316D039C1232607088DE04D7E13A6C125260AAD
S11316E0088DD5B6044AF6044B39C127262C088D3B
S11316F0C797E8D7E9DFEACE044E863DC609BD1494
S1131700018D12B7044EF7044FCE00E8164FBD14F6
S113171001164FDEEACB01890039C12226074FE6C4
S11317200108080839C124272C205CC13F270BC1BC
S113173024270A33BD15C77E120B168D0233178D6D
S11317400516C40F200454545454C10A2B02CB0769
S1131750CB307E15984F8D1925037E121C378D11C1
S1131760D7E433241F5849584958495849DBE420E1
S1131770EC08E600C030250DC10A2508C007C10ADF
S11317802503C110390C39C15C2608080FD60B9605
S11317900A0E39C15E262008E600C124261408FF7B
S11317A00488BDFFF5FF048AB6048AF6048BFE04A0
S11317B08839960FD61039C15B260A08BDF00F246C
S11317C0014F164F397E131E0D0D2A5245414459BF
S11317D00D000C47414D4536382F424D206279208B
S11317E07A75203137323332323533353100070DD3
S11317F02A425245414B0D00C12F2707C15E2717CE
S11318007E114A7E10DD7E1064CE0600BD14CFBD6D
S11318101107BD14CF20E908FF0460BD1130EE00AC
S1131820FF06009C4A26DFFE043E0808FF043ECE65
S11318300602FF0470FF0464FE0460FF04628D3C32
S11318408D251126FB09FF04668D31C15E27078DA6
S1131850161127F520E2FE0466FF04648D1EC15EA6
S113186027D6178D0B20F5FE043EA60008FF043E84
S1131870FE0464A700279208FF046439FE0462E6AC
S113188000278308FF046239FF0488FE047AFF04FA
S11318904C6F006A00FE048807B7048608A600811E
S11318A02027F94D2605865B7E1694C606F7048626
S11318B07F048A8643B7048BA600271D812027193D
S11318C0810D271508FF0488FE048AA70008FF0479
S11318D08AFE04885A26E1200EFF0488FE048A86C4
S11318E020A700085A26F8862E97498653974A7FE0
S11318F0004C8D2AFE04887E1076FF048837DE3B78
S11319008C09002B077C004C8D1420F2A60008DF04
S11319103B4D2605860D7F048633FE048839FF047B
S11319208C36CE0800DF3BCE0900DF3DBD002E869D
S11319302DBD002B8620BD002B964CBD19EE860DC7
S1131940BD002B32FE048C3908A600812027F94DF6
S11319502605865B7E1694C6067F048A8643B704F2
S11319608BA600271D81202719810D271508FF0448
S113197088FE048AA70008FF048AFE04885A26E128
S1131980200EFF0488FE048A8620A700085A26F841
S1131990862E97498653974AB704877F004CCE0812
S11319A000DF3BDF3DFE0488FE047A7E10E2FF0484
S11319B08ADE3DA70008DF3D8C090026028D04FE67
S11319C0048A39FF048C37367C004CBD0031862DE7
S11319D08D1986208D15964C8D14860D8D0DCE088F
S11319E000DF3BDF3D3233FE048C397E002B36446E
S11319F04444448D013236810A25028B078B308D95
S1131A00EA32397F00C47F00C57F00C77F00CA7FE8
S1091A1000CB7A00CB3983
S9031000EC
