S00D000047414D4536382E6D6F74EC
S11310007E1028203E36BDFFE90E3239360FBDFF73
S1131010E6323907B704853B3617BD002B7D0487BC
S11310202703BD19FF1632399E08CE3A00FF047A11
S1131030FF044C86FFA7007F04867F0487CE182117
S1131040BD1219D609F70455D6085AF704547F047B
S113105085CE1013DF04CE0400DFF07F04867F0406
S113106087BD1A549E087F0485CE04FFDFE0CE18A6
S113107017BD12198D8F9E08BD14A02551FF043E83
S1131080BD128A27DFBD11302BDAFF043E7D0485B3
S1131090270E7F04867F0487CE183FBD121920C413
S11310A00808A6008120260ABD12892612086D00B0
S11310B020D608A60026FB08FF043EA60020C9FE91
S11310C0043EDFEC8D702B9C9CEC27B920BFFF0401
S11310D070B70446F70447E600C12F266D8D51BD55
S11310E0150E6D002B098D1F7D0485260220F07DD1
S11310F0048727104FBD19FFDE3B9C3D2703BD1A13
S1131100147F04877E1064FF043EA600E6017D047C
S1131110872605BD16172005BD11CD8D05FE043E9D
S113112008087E1219FE043E0808A60026FB0839AA
S1131130FE047AFF043EA601B00447A6002B0AB2BF
S1131140044624048DDF20EB4F39FE0446278E2B02
S11311504FFE044CA6004C2647BD100C8DD22B1C10
S1131160EE00BC044626158DBCBE043EA6003631F6
S1131170BC044C2704083120F3BF044CFE0470C6A1
S1131180036D0027405C086D0026FA4FFB044DB93F
S1131190044CB70438F70439F00455B20454250359
S11311A07E1064FE044CBE0438BF044C0809E600FB
S11311B037BC043E26F7BE0446AF00BE04703408B4
S11311C033E70126FA9E08BD10057E1076CE047F13
S11311D0FF0468CE1A67FF046A7F00E67C00E6E03D
S11311E001A20024F7EB01A90037D6E6CB2FFF04B8
S11311F06AFE0468E70008FF046833FE046A08080E
S11312008C1A6F26D1CB3053F70483CE047E08E6C4
S113121000C13027F9730483394FB70484E600080A
S1131220F1048427F3BD15D720F3367D0486270502
S1131230BD194B2005865FBD002816323981202751
S1131240485FF70446F70447E601C5DF2618815DC9
S11312502605BD153A202E8140260B08FF04424F77
S11312605FBD12E3201F81222605088DAD201B815E
S11312702F261CBD150E2011DFECBD12FEBD15136B
S1131280FE04462609FE04429C08A60026AF3981C6
S11312905B26E508A60081532606BD19997E1064D5
S11312A0814C2605BD18D920F481412605BD18E9D5
S11312B020EB813D262908A60081302606BDF000DA
S11312C07E10648131261808A60027C2812027F7E2
S11312D0BDF00CBDFFE90EA600812526AD20AA862F
S11312E05B201897E8D7E9BD15B5CE00E87E15BD9B
S11312F037088D158DED333239863D7E16D9A6001B
S11313000885DF27F4813D26F58D1E36A60085DF8E
S1131310271081292710812C27D632BD138EDEE2B7
S113132020E9FF04429C0832397E16FDC13F260B9A
S1131330DFEEBD14D78DD2DEEE0839C128260308AE
S113134020C78D31813A27088D16A600E6012005B5
S11313508D064FE600DEEA398D10DBEF99EE202989
S11313608128261B8D04584920F08D13EE00DFEEF2
S1131370DEEA0820CBE60008A60081412AF939C438
S11313803F58D7F1DFEADEF039DFEA7E159B3637C6
S1131390A60036E60137C03D27035A260108088D0A
S11313A08897E8D7E9DFE2CE00E83332813D260DA5
S11313B033328D5126245D26214FC60139813C26C6
S11313C01CC13D270AC13E33260B328DE520233351
S11313D0328D19201D328D2D2DDF4F5F39813E2630
S11313E014C13D332605328DED2007328D172DEAC9
S11313F08DC2C8013933812B260632EB01A900398D
S1131400812D260632E001A20039812A27037E16A7
S11314107732FF0468EE00DFE67D00E62708F70474
S113142069B704682006DFE4D7E797E64F5FCE008C
S1131430087600E72404DBE599E444560926F276AD
S113144000E77D00E62603172016CE00087600E6A6
S11314502404DBE599E444560926F27600E696E690
S1131460D6E7FE046839EE00DFE497E62609D7E6FE
S113147097E7CE00082006D7E7CE00104F5F78002C
S1131480E77900E65949D0E592E425077C00E709AD
S113149026EC39DBE599E40926E4390C39330D39B6
S11314A08D31E600C13025F3C13A24F34F5FEB00E0
S11314B08900C030820097E4D7E50837E600C130E0
S11314C025DBC13A24D73358495849DBE599E45818
S11314D04920DBC63A8D39CE050109BD122AC10D5A
S11314E02727C17F2706C108260FC67F8D228C05BA
S11314F00026E7C6078D1920E2C11025DE8C05FE03
S113150027F18D0CE7000820D26F00CE0500C60D30
S11315107E15D737DEECE600C12E260C33174D2797
S113152010C6208DEB4A20F6C13B261D338D6C2757
S113153001399E08FE043E7E10B2CE04428D03CED5
S1131540043E8D2FA700E70139C140263536E60257
S1131550BD137F32338DED8D1ABD13D6260D8DDA72
S1131560DEE0090909090909DFE039DFE6DEE00800
S1131570082004DFE6DEE0A600E6010808DFE0DE7E
S1131580E639C126261FE601C13D2619338D0C26F6
S113159009FE047AFF044C4AA70039B70468F7042B
S11315A069FE046839C121262933B70446F7044784
S11315B0FE044627EFCE043E8D03CE0442A600E689
S11315C001FF0468DEE00909A700E701DFE0FE048B
S11315D06839C1242604337E1018C13F263FE60132
S11315E0C12827037E177A3608BD16FDF704843216
S11315F0338D13FF0460B60484BB046180842B0321
S1131600BD151E7E12194D2B037E11CDBD16B68D50
S1131610F8C62D09E700393736C60520CFC13D2667
S11316201633B7047AF7047BCEFFFFFF0446BD11DF
S113163030FF044C7E1064C13E262333BD159B2726
S1131640D5AD003736DEECBD1375813A2608BD13DF
S1131650583233E70039BD136032337E1544C15C20
S1131660260B330F970AD70B7F000C0E39C15E2669
S1131670D333970FD71039812F26407F04836D0011
S113168026066D01260F20512A0B7C048360012657
S1131690026A006300324D2A057A04838D18FF0420
S11316A068BD1466FE0468B7044AF7044B96E6D690
S11316B0E77D0483270440508200398126260632C0
S11316C0E401A40039812E260632EA01AA003981F8
S11316D021260632E801A80039BD150EC63FBD1506
S11316E0D716BD15D7C620BD15D7FE043EBC150CB4
S11316F02605BD12192003BD11077E1064BD14A276
S11317002513C12D2605088DF420ABC12B2607080F
S11317108DEB4D2BF439C1232607088DE04D7E1344
S1131720B4C125260A088DD5B6044AF6044B39C13E
S1131730272636088DC7D7E997E8DFEAF6044E5422
S1131740F6044F56F8044EF7044E56F8044FF704C7
S11317504F17B8044EB7044ECE00E8164FBD14120E
S1131760164FDEEACB01890039C12226074FE60174
S113177008080839C124272C205CC13F270BC12449
S1131780270A33BD16067E1219168D0233178D05EE
S113179016C40F200454545454C10A2B02CB07CB53
S11317A0307E15D74F8D1925037E122A378D11D718
S11317B0E433241F5849584958495849DBE420EC7C
S11317C008E600C030250DC10A2508C007C10A2556
S11317D003C110390C39C15C2608080FD60B960AD0
S11317E00E39C15E262008E600C124261408FF0431
S11317F088BDFFF5FF048AB6048AF6048BFE0488CC
S113180039960FD61039C15B260A08BDF00F2401A2
S11318104F164F397E132C0D0D2A52454144590D54
S1131820000C47414D4536382F424D206279207ACD
S113183075203230323430383138313134330007A6
S11318400D2A425245414B0D00C12F2707C15E2787
S1131850177E114A7E10DD7E1064CE0600BD150E83
S1131860BD1107BD150E20E908FF0460BD1130EE5F
S113187000FF06009C4A26DFFE043E0808FF043EE3
S1131880CE0602FF0470FF0464FE0460FF04628D50
S11318903C8D251126FB09FF04668D31C15E2707A7
S11318A08D161127F520E2FE0466FF04648D1EC127
S11318B05E27D6178D0B20F5FE043EA60008FF0414
S11318C03EFE0464A700279208FF046439FE046204
S11318D0E600278308FF046239FF0488FE047AFFC8
S11318E0044C6F006A00FE048807B7048608A6004B
S11318F0812027F94D2605865B7E16D9C606F70496
S1131900867F048A8643B7048BA600271D8120277F
S113191019810D271508FF0488FE048AA70008FF13
S1131920048AFE04885A26E1200EFF0488FE048AF5
S11319308620A700085A26F8862E97498653974A88
S11319407F004C8D2AFE04887E1076FF048837DEE3
S11319503B8C09002B077C004C8D1420F2A6000858
S1131960DF3B4D2605860D7F048633FE048839FF50
S1131970048C36CE0800DF3BCE0900DF3DBD002ECF
S1131980862DBD002B8620BD002B964CBD1A3F86AC
S11319900DBD002B32FE048C3908A600812027F9E6
S11319A04D2605865B7E16D9C6067F048A8643B714
S11319B0048BA600271D81202719810D271508FFF8
S11319C00488FE048AA70008FF048AFE04885A26B5
S11319D0E1200EFF0488FE048A8620A700085A2608
S11319E0F8862E97498653974AB704877F004CCED2
S11319F00800DF3BDF3DFE0488FE047A7E10E2FF30
S1131A00048ADE3DA70008DF3D8C090026028D0410
S1131A10FE048A39FF048C37367C004CBD003186C5
S1131A202D8D1986208D15964C8D14860D8D0DCE19
S1131A300800DF3BDF3D3233FE048C397E002B3659
S1131A40444444448D013236810A25028B078B308D
S1131A508DEA32397F00C47F00C57F00C77F00CA8A
S1131A607F00CB7A00CB39271003E80064000A001A
S1041A700170
S9031000EC
